:100000000C9462000C948A000C948A000C948A0070
:100010000C948A000C948A000C948A000C948A0038
:100020000C948A000C948A000C948A000C948A0028
:100030000C948A000C948A000C948A000C948A0018
:100040000C9478060C948A000C9446060C942006B6
:100050000C948A000C948A000C948A000C948A00F8
:100060000C948A000C948A000000000024002700F1
:100070002A0000000000250028002B0000000000DE
:1000800023002600290004040404040404040202DA
:100090000202020203030303030301020408102007
:1000A0004080010204081020010204081020000012
:1000B0000008000201000003040700000000000027
:1000C0000000C20611241FBECFEFD8E0DEBFCDBFB7
:1000D00012E0A0E0B1E0EEEBF3E102C005900D927A
:1000E000A433B107D9F723E0A4E3B2E001C01D9225
:1000F000A037B207E1F710E0C2E6D0E004C02197D4
:10010000FE010E94C909C136D107C9F70E947B07C9
:100110000C94DD090C94000096E0899FD001112415
:10012000A751BD4F90967C936E935F9791E0919607
:100130009C939197E0915603F0915703909155034A
:10014000992339F0309751F0811108C0809105034F
:100150000994309719F05C968C91FACF0895CF925C
:10016000DF92EF92FF920F931F9396E0899FF00129
:100170001124E751FD4F11A2278D30A12130310507
:1001800051F178F02230310509F451C023303105A6
:1001900009F452C01F910F91FF90EF90DF90CF9024
:1001A00008956623B9F361E070E00E948C002FB7D8
:1001B000F8948091480290914902A0914A02B0912E
:1001C0004B022FBF8093410390934203A0934303BC
:1001D000B0934403DFCF9FB7F894C0904802D0900B
:1001E0004902E0904A02F0904B029FBF0091410308
:1001F000109142032091430330914403C01AD10A65
:10020000E20AF30A009153031091540330E020E016
:100210000C151D052E053F0550F462E070E01F919E
:100220000F91FF90EF90DF90CF900C948C006111B4
:10023000B1CF63E070E0F3CF70E060E0F0CFDC01BD
:10024000ED91FC910190F081E02D0994AF92BF9265
:10025000CF92DF92EF92FF920F931F93CF93DF9392
:100260006C017B018B01040F151FEB015E01AE18C1
:10027000BF08C017D10759F06991D601ED91FC91E3
:100280000190F081E02DC6010995892B79F7C50110
:10029000DF91CF911F910F91FF90EF90DF90CF9062
:1002A000BF90AF900895FC01538D448D252F30E011
:1002B000842F90E0821B930B541710F0CF96089573
:1002C00001970895FC01918D828D981761F0A28DA0
:1002D000AE0FBF2FB11D5D968C91928D9F5F9F7366
:1002E000928F90E008958FEF9FEF0895FC01918D1C
:1002F000828D981731F0828DE80FF11D858D90E089
:1003000008958FEF9FEF0895FC01918D228D892F25
:1003100090E0805C9F4F821B91098F73992708950D
:100320008CE492E00E94840121E0892B09F420E012
:10033000822F089580E090E0892B29F00E9490019F
:1003400081110C9400000895FC01A48DA80FB92F11
:10035000B11DA35ABF4F2C91848D90E001968F73ED
:100360009927848FA689B7892C93A089B1898C910C
:10037000837080648C93938D848D981306C002885B
:10038000F389E02D80818F7D80830895EF92FF9225
:100390000F931F93CF93DF93EC0181E0888F9B8DA8
:1003A0008C8D98131AC0E889F989808185FF15C062
:1003B0009FB7F894EE89FF896083E889F989808185
:1003C0008370806480839FBF81E090E0DF91CF9154
:1003D0001F910F91FF90EF900895F62E0B8D10E076
:1003E0000F5F1F4F0F731127E02E8C8D8E110CC0E5
:1003F0000FB607FCFACFE889F989808185FFF5CF30
:10040000CE010E94A401F1CFEB8DEC0FFD2FF11D69
:10041000E35AFF4FF0829FB7F8940B8FEA89FB896C
:1004200080818062CFCFCF93DF93EC01888D8823CA
:10043000B9F0AA89BB89E889F9898C9185FD03C047
:10044000808186FD0DC00FB607FCF7CF8C9185FF2C
:10045000F2CF808185FFEDCFCE010E94A401E9CFCC
:10046000DF91CF910895833081F028F4813099F0A5
:100470008230A9F008958730A9F08830C9F084301F
:10048000B1F4809180008F7D03C0809180008F77D0
:1004900080938000089584B58F7784BD089584B5D6
:1004A0008F7DFBCF8091B0008F778093B00008954F
:1004B0008091B0008F7DF9CFCF93DF93282F30E06C
:1004C000F901E255FF4F8491F901E656FF4FD491AF
:1004D000F901EA57FF4FC491CC23A1F081110E948A
:1004E0003302EC2FF0E0EE0FFF1FE458FF4FA59111
:1004F000B491EC91ED2381E090E009F480E0DF918C
:10050000CF91089580E090E0FACF862F0C945C02A2
:100510001F93CF93DF93282F30E0F901E255FF4F6F
:100520008491F901E656FF4FD491F901EA57FF4F44
:10053000C491CC23A9F0162F81110E943302EC2F15
:10054000F0E0EE0FFF1FEE58FF4FA591B4918FB76B
:10055000F894EC91111108C0D095DE23DC938FBF85
:10056000DF91CF911F910895DE2BF8CF862F642F56
:100570000C948802CF93DF9390E0FC01E656FF4F86
:1005800024918A579F4FFC0184918823C9F090E001
:10059000880F991FFC01E859FF4FA591B491FC0108
:1005A000EE58FF4FC591D49161110DC09FB7F894DB
:1005B0008C91209582238C938881282328839FBF48
:1005C000DF91CF910895623051F49FB7F8943C9138
:1005D000822F809583238C93E8812E2BEFCF8FB7CA
:1005E000F894EC912E2B2C938FBFEACF862F642F9B
:1005F0000C94BA026F927F928F929F92AF92BF92A9
:10060000CF92DF92EF92FF920F931F93CF93DF93DE
:1006100081E0809355038FB7F89440914802509140
:10062000490260914A0270914B028FBF809145034D
:1006300090914603A0914703B0914803481B590B82
:100640006A0B7B0B8091510390915203B0E0A0E0C4
:1006500084179507A607B70708F01DC1C0E0809171
:100660004F03C81760F4E0914B03F0914C03EC0F7B
:10067000F11D62E080810E94BA02CF5FF0CF712C41
:10068000812C912C5401839480915003781608F0AA
:100690005FC0072D10E0E0914D03F0914E03E00F95
:1006A000F11F61E080810E94BA02E0914D03F09158
:1006B0004E03E00FF11F60E080810E948802D501A7
:1006C000C401072C04C0880F991FAA1FBB1F0A94DE
:1006D000D2F76C017C01E094F094612C80914F037F
:1006E0006816F8F4C62DD0E0E0914B03F0914C036E
:1006F000EC0FFD1F80810E945C022496CC0FDD1F51
:10070000C751DD4F892B41F4888199818C299D291E
:10071000998388836394E2CF888199818E219F2178
:10072000F7CFE0914D03F0914E03E00FF11F61E030
:1007300080810E94880280914D0390914E03080FA2
:10074000191F60E0F80180810E94BA0273949CCF67
:10075000C9EED2E0FE018FEF9FEF278D30A1232B52
:1007600021F4148E968F858F11A2369623E0E53200
:10077000F20799F7F12C96E0D92E80914F03F816E5
:1007800008F050C0E12C0F2D10E0000F111F0F508A
:100790001D4F20915003E21608F042C0F80160811D
:1007A00071810E2C02C0769567950A94E2F7F29E4D
:1007B000900111242E0D311DE9EEF2E080E0458D0F
:1007C000568D2417350709F46AC08F5F36968A3034
:1007D000B1F760FF23C0E9EEF2E090E080E0448DE5
:1007E000411117C0E0914903F0914A03E20FF31F52
:1007F0004081D89EF001D99EF00D1124E751FD4FA4
:10080000448F368F258F10A2178E61E00E94AF00B3
:1008100005C0019636968A30910509F7E394B9CF61
:10082000F394ABCF80E099A19111892F2696F3E044
:10083000C532DF07C1F79FB7F89440914802509145
:10084000490260914A0270914B029FBF4093450359
:100850005093460360934703709348038823D9F06D
:1008600080910A038823B9F08091080390910903CD
:10087000019789F480910503DF91CF911F910F912A
:10088000FF90EF90DF90CF90BF90AF909F908F90B0
:100890007F906F9008951092550380E0EDCF6170C6
:1008A000B5CF3FB7F8948091350290913602A09170
:1008B0003702B091380226B5A89B05C02F3F19F02A
:1008C0000196A11DB11D3FBFBA2FA92F982F8827D0
:1008D000BC01CD01620F711D811D911D42E0660FAB
:1008E000771F881F991F4A95D1F708958F929F927D
:1008F000AF92BF92CF92DF92EF92FF924B015C01D9
:100900000E9451046B017C010E9451046C197D0905
:100910008E099F09683E734081059105A8F321E087
:10092000821A9108A108B10888EEC80E83E0D81E8B
:10093000E11CF11C81149104A104B10429F7FF907A
:10094000EF90DF90CF90BF90AF909F908F900895E1
:10095000089590E080E0089561E08AE00E948802B6
:1009600068EE73E080E090E00E94760460E08AE048
:100970000C948802FC0101900020E9F73197AF0147
:10098000481B590BBC0188E593E00C942601CF93DA
:10099000DF93EC0160E08E810E94880261E08E812D
:1009A0000E94880260E08E810E9488028BE891E0BC
:1009B0000197F1F7DF91CF910895CF92DF92EF92F7
:1009C000FF920F931F93CF93DF936C017C0187E01D
:1009D000E80EF11CD0E0C0E0062F10E0B8010C2EAC
:1009E00002C0759567950A94E2F76170F7018191ED
:1009F0007F010E9488022196C430D10579F7C60193
:100A0000DF91CF911F910F91FF90EF90DF90CF90EA
:100A10000C94C704CF92DF92EF92FF920F931F9333
:100A2000CF93DF93EC01F62E642F8C810E94880215
:100A30008D818F3F19F060E00E9488020F2D10E039
:100A40008F8584FF25C06E0187E0C80ED11CF12C74
:100A5000E12CB8010E2C02C0759567950A94E2F757
:100A60006170F60181916F010E948802FFEFEF1A19
:100A7000FF0A88E0E816F10461F7CE01DF91CF911B
:100A80001F910F91FF90EF90DF90CF900C94C704CF
:100A9000B80184E0759567958A95E1F7CE010E94CB
:100AA000DD046F2DCE01DF91CF911F910F91FF904B
:100AB000EF90DF90CF900C94DD0440E0682F88E544
:100AC00093E00C940A0581E00E945D058BE39FE1B1
:100AD0000197F1F70895CF93DF93823029F4909135
:100AE000670398609093670380936B0310926C0385
:100AF00080E480936D0380E180936E0380E58093B2
:100B00006F0361E080915C030E94BA0280915D03F3
:100B10008F3F19F061E00E94BA0261E080915E03AC
:100B20000E94BA02C8E5D3E09E0128553340809167
:100B3000670384FD0BC084E090E0219628173907F5
:100B400044F461E08E810E94BA02EECF88E090E02A
:100B5000F4CF8BE39DE00197F1F760E080915C03B7
:100B60000E94880260E080915E030E94880280916A
:100B70005D038F3F19F060E00E9488028091670357
:100B800084FD34C063E088E593E00E94DD04CBE49B
:100B9000D6E4CE010197F1F763E088E593E00E9487
:100BA000DD042197F1F763E088E593E00E94DD041E
:100BB00083E592E00197F1F762E088E593E00E9417
:100BC000DD048091670380620E945D0584E080936C
:100BD00068038CE00E945D050E94630582E08093BB
:100BE000690386E0DF91CF910C945D0580620E94DD
:100BF0005D058BE496E40197F1F7809167038062CD
:100C00000E945D0583E592E00197F1F7809167030B
:100C100080620E945D05D5CF90916B03891710F01B
:100C20008FEF890FE82FF0E0E85AFC4F8489806845
:100C30000C945D0541E00E940A0581E090E0089572
:100C40001F920F920FB60F9211242F933F934F9341
:100C50005F936F937F938F939F93AF93BF93EF9324
:100C6000FF938CE492E00E94A401FF91EF91BF9169
:100C7000AF919F918F917F916F915F914F913F9134
:100C80002F910F900FBE0F901F9018951F920F92EB
:100C90000FB60F9211242F938F939F93EF93FF938F
:100CA000E0915C02F0915D028081E0916202F0913E
:100CB000630282FD1BC09081809165028F5F8F73FC
:100CC00020916602821741F0E0916502F0E0E45B5A
:100CD000FD4F958F80936502FF91EF919F918F91CA
:100CE0002F910F900FBE0F901F9018958081F4CF19
:100CF0001F920F920FB60F9211242F933F938F9351
:100D00009F93AF93BF938091480290914902A09125
:100D10004A02B0914B023091340223E0230F2D3769
:100D200058F50196A11DB11D20933402809348020D
:100D300090934902A0934A02B0934B0280913502EE
:100D400090913602A0913702B09138020196A11D10
:100D5000B11D8093350290933602A0933702B09371
:100D60003802BF91AF919F918F913F912F910F903A
:100D70000FBE0F901F90189526E8230F0296A11D15
:100D8000B11DD2CF10924F0210924E0288EE93E026
:100D9000A0E0B0E08093500290935102A0935202E1
:100DA000B09353028CE191E090934D0280934C02FA
:100DB00085EC90E0909359028093580284EC90E087
:100DC00090935B0280935A0280EC90E090935D02D6
:100DD00080935C0281EC90E090935F0280935E02CE
:100DE00082EC90E0909361028093600286EC90E048
:100DF00090936302809362021092650210926602E1
:100E0000109267021092680210925B0310925A03CC
:100E100088E391E0909359038093580389E080938D
:100E20005C038FEF80935D0388E080935E0387E02F
:100E300080935F0386E08093600385E08093610385
:100E400084E0809362031092630310926403109213
:100E50006503109266031092670381E00E946B05A0
:100E60001092EB021092EF021092EE021092F0023A
:100E70008EE291E09093EA028093E902E5E0F3E0EC
:100E80001082148213821582369683E0E134F807CB
:100E9000B9F784E091E090934C0380934B0380E09A
:100EA00091E090934E0380934D0384E080934F0331
:100EB0008093500388E091E090934A038093490324
:100EC0008AE090E0909352038093510384EF91E085
:100ED0009093540380935303109257031092560338
:100EE0001092450310924603109247031092480354
:100EF000109255030895789484B5826084BD84B5BA
:100F0000816084BD85B5826085BD85B5816085BD04
:100F100080916E00816080936E00109281008091BC
:100F20008100826080938100809181008160809344
:100F30008100809180008160809380008091B10069
:100F400084608093B1008091B00081608093B00094
:100F500080917A00846080937A0080917A00826028
:100F600080937A0080917A00816080937A008091EA
:100F70007A00806880937A001092C100E0915C0250
:100F8000F0915D0282E08083E0915802F091590275
:100F90001082E0915A02F0915B028FEC80831092F4
:100FA0006402E0916002F091610286E08083E0914A
:100FB0005E02F0915F02808180618083E0915E0239
:100FC000F0915F02808188608083E0915E02F09101
:100FD0005F02808180688083E0915E02F0915F0211
:100FE00080818F7D808361E08BE00E94BA0282E085
:100FF0000E946B0561E080E00E94BA0261E08AE035
:101000000E94BA0261E080E00E94BA0261E080E0E2
:101010000E94BA0280E00E940C0680E491E00E94E7
:10102000BA0481E00E940C068FE491E00E94BA04A9
:1010300060ED77E080E090E00E9476040E94630516
:1010400080E00E940C068DE591E00E94BA0481E0E8
:101050000E940C0682E691E00E94BA0460ED77E0FF
:1010600080E090E00E9476040E94630580E00E9488
:101070000C0682E791E00E94BA0481E00E940C060F
:1010800061E390E080E00E94BB0962E381E090E0D0
:101090000E94BB0963E382E090E00E94BB0964E325
:1010A00083E090E00E94BB090DE312E0D0E0C0E0D5
:1010B000CE010E94B309F80181938F012196C430BB
:1010C000D105B1F790E0E92E90E0F92E61E08BE0D8
:1010D0000E9488020E94FA0280934702833209F03C
:1010E00054C00E94630581E891E00E94BA0481E047
:1010F0000E940C0609E312E0F2E00D331F07A9F08D
:101100000E94FA02C82F8823B9F3F80181938F0156
:10111000682F88E593E00E941F016C2F8CE492E019
:101120000E941F010E94AC04E7CF64EF71E080E0F1
:1011300090E00E94760444E050E06DE372E089E3C1
:1011400092E00E94CF09EC01892B09F4AFC00E9404
:10115000630581E991E00E94BA0481E00E940C06D7
:1011600082EA91E00E94BA0468EE73E080E090E0C9
:101170000E9476040E94630581ED91E00E94BA040A
:1011800081E00E940C06109247026091470266239C
:1011900009F180914502909146029C012F5F3F4FDB
:1011A00030934602209345028F5B9D4FFC01608384
:1011B00088E593E00E941F01609147028CE492E071
:1011C0000E941F010E94AC0460ED77E080E090E097
:1011D0000E9476048091450290914602049709F09E
:1011E00059C068EC70E080E090E00E9476040DE366
:1011F00012E0D0E0C0E0CE010E94B309F801819373
:101200008F012196C430D105B1F744E050E06DE381
:1012100072E081E492E00E94CF0961E0892B09F03D
:1012200072C080E00E9488020E94AC0468EC70E00A
:1012300080E090E00E9476040E94630581EE91E0D8
:101240000E94BA0460E08BE00E94880260EA7FE0BE
:1012500080E090E00E94760481E00E940C0682EF1C
:1012600091E00E94BA0460ED77E080E090E00E9497
:1012700076040E94630583E092E00E94BA0481E054
:101280000E940C06109246021092450260E080E037
:101290000E948802E114F10409F418CF0E94900121
:1012A000882309F413CF0E94000010CF0E94630529
:1012B00084EB91E00E94BA0481E00E940C068DE369
:1012C000C82E82E0D82EC430D105D1F00E94FA0297
:1012D000182F8823C1F3F60181936F01682F88E5E9
:1012E00093E00E941F01612F8CE492E00E941F0195
:1012F000612FCE010E94BB0921960E94AC04E3CF6E
:1013000085EC91E02FCF8BE00E94880261E08AE0BB
:101310000E94880268EE73E080E090E00E9476040C
:101320000E94630584E192E00E94BA0481E00E9479
:101330000C0682EF91E00E94BA0468EE73E080E050
:1013400090E00E9476040E94630585E292E00E948C
:10135000BA0481E00E940C061092460210924502E7
:1013600060E08AE095CFF999FECF92BD81BDF89AF1
:10137000992780B50895262FF999FECF1FBA92BDFF
:1013800081BD20BD0FB6F894FA9AF99A0FBE019666
:101390000895EE0FFF1F0590F491E02D0994FB01D5
:1013A000DC014150504030F08D910190801919F4CA
:0E13B0000020B9F7881B990B0895F894FFCF21
:1013BE00121303020E0F10113132334134353642FF
:1013CE00373839432A30234400000000C601260175
:1013DE005301130284016201760100000000F6023F
:1013EE00B6028502000000001A062601A904A80410
:1013FE002020444F4F522053414654592020002064
:10140E004B4559504144204C4F434B2000495348C3
:10141E0041002057656C636F6D65732055203A2926
:10142E002000454E5445522050415353204B4559B0
:10143E000043757272656E7420506173736B6579BB
:10144E000057726F6E6720506173736B65792E2E25
:10145E002E00426574746572204C75636B20416773
:10146E0061696E00456E746572204E65772050611D
:10147E0073736B3A0020446F6E652E2E2E2E2E2E19
:10148E0000456E74657220557220506173736B3A0D
:10149E0000506173736B6579204163636570746589
:1014AE006400232E4368616E676520506173736B11
:1014BE00657900456E74657220506173736B657942
:1014CE003A2020004163636573732044656E69653D
:1014DE00642E2E2E00456E74657220506173736BF0
:0414EE0065793A00E2
:00000001FF
