:100000000C9462000C948A000C948A000C948A0070
:100010000C948A000C948A000C948A000C948A0038
:100020000C948A000C948A000C948A000C948A0028
:100030000C948A000C948A000C948A000C948A0018
:100040000C94F7040C948A000C94C5040C949F043F
:100050000C948A000C948A000C948A000C948A00F8
:100060000C948A000C948A000000000024002700F1
:100070002A0000000000250028002B0000000000DE
:1000800023002600290004040404040404040202DA
:100090000202020203030303030301020408102007
:1000A0004080010204081020010204081020000012
:1000B0000008000201000003040700000000000027
:1000C0000000410511241FBECFEFD8E0DEBFCDBF39
:1000D00011E0A0E0B1E0E8E6F5E102C005900D9284
:1000E000A634B107D9F722E0A6E4B1E001C01D9221
:1000F000AC36B207E1F710E0C2E6D0E004C02197C9
:10010000FE010E94AC0AC136D107C9F70E94CE0594
:100110000C94B20A0C94000096E0899FD00111243F
:10012000A350BE4F90967C936E935F9791E091960B
:100130009C939197E0916A02F0916B029091690211
:10014000992339F0309751F0811108C0809119023C
:100150000994309719F05C968C91FACF0895CF925C
:10016000DF92EF92FF920F931F9396E0899FF00129
:100170001124E350FE4F11A2278D30A1213031050B
:1001800051F178F02230310509F451C023303105A6
:1001900009F452C01F910F91FF90EF90DF90CF9024
:1001A00008956623B9F361E070E00E948C002FB7D8
:1001B000F89480915C0190915D01A0915E01B091F5
:1001C0005F012FBF8093550290935602A093570270
:1001D000B0935802DFCF9FB7F894C0905C01D090E5
:1001E0005D01E0905E01F0905F019FBF00915502BC
:1001F000109156022091570230915802C01AD10A2C
:10020000E20AF30A009167021091680230E020E0F0
:100210000C151D052E053F0550F462E070E01F919E
:100220000F91FF90EF90DF90CF900C948C006111B4
:10023000B1CF63E070E0F3CF70E060E0F0CFAF9259
:10024000BF92CF92DF92EF92FF920F931F93CF93C3
:10025000DF936C017B018B01040F151FEB015E0125
:10026000AE18BF08C017D10759F06991D601ED91BA
:10027000FC910190F081E02DC6010995892B79F759
:10028000C501DF91CF911F910F91FF90EF90DF900B
:10029000CF90BF90AF900895FC01538D448D252FD2
:1002A00030E0842F90E0821B930B541710F0CF9610
:1002B000089501970895FC01918D828D981761F042
:1002C000A28DAE0FBF2FB11D5D968C91928D9F5F59
:1002D0009F73928F90E008958FEF9FEF0895FC0138
:1002E000918D828D981731F0828DE80FF11D858DEB
:1002F00090E008958FEF9FEF0895FC01918D228D7E
:10030000892F90E0805C9F4F821B91098F73992702
:10031000089580E691E00E947D0121E0892B09F497
:1003200020E0822F089580E090E0892B29F00E9440
:10033000890181110C9400000895FC01A48DA80F7F
:10034000B92FB11DA35ABF4F2C91848D90E0019617
:100350008F739927848FA689B7892C93A089B18937
:100360008C91837080648C93938D848D981306C0D8
:100370000288F389E02D80818F7D80830895EF923C
:10038000FF920F931F93CF93DF93EC0181E0888F4F
:100390009B8D8C8D98131AC0E889F989808185FF1F
:1003A00015C09FB7F894EE89FF896083E889F989C1
:1003B00080818370806480839FBF81E090E0DF91C3
:1003C000CF911F910F91FF90EF900895F62E0B8D16
:1003D00010E00F5F1F4F0F731127E02E8C8D8E11D1
:1003E0000CC00FB607FCFACFE889F989808185FF38
:1003F000F5CFCE010E949D01F1CFEB8DEC0FFD2FCB
:10040000F11DE35AFF4FF0829FB7F8940B8FEA89F2
:10041000FB8980818062CFCFCF93DF93EC01888D01
:100420008823B9F0AA89BB89E889F9898C9185FD6F
:1004300003C0808186FD0DC00FB607FCF7CF8C91FD
:1004400085FFF2CF808185FFEDCFCE010E949D0117
:10045000E9CFDF91CF910895833081F028F4813086
:1004600099F08230A9F008958730A9F08830C9F05A
:100470008430B1F4809180008F7D03C08091800032
:100480008F7780938000089584B58F7784BD089519
:1004900084B58F7DFBCF8091B0008F778093B000C3
:1004A00008958091B0008F7DF9CFCF93DF93282FEF
:1004B00030E0F901E255FF4F8491F901E656FF4F14
:1004C000D491F901EA57FF4FC491CC23A1F08111D7
:1004D0000E942C02EC2FF0E0EE0FFF1FE458FF4FBC
:1004E000A591B491EC91ED2381E090E009F480E0D6
:1004F000DF91CF91089580E090E0FACF862F0C94A1
:1005000055021F93CF93DF93282F30E0F901E25576
:10051000FF4F8491F901E656FF4FD491F901EA5754
:10052000FF4FC491CC23A9F0162F81110E942C02F9
:10053000EC2FF0E0EE0FFF1FEE58FF4FA591B491A6
:100540008FB7F894EC91111108C0D095DE23DC939D
:100550008FBFDF91CF911F910895DE2BF8CF862FAB
:10056000642F0C948102CF93DF9390E0FC01E65658
:10057000FF4F24918A579F4FFC0184918823C9F033
:1005800090E0880F991FFC01E859FF4FA591B491A5
:10059000FC01EE58FF4FC591D49161110DC09FB77A
:1005A000F8948C91209582238C938881282328832A
:1005B0009FBFDF91CF910895623051F49FB7F894B7
:1005C0003C91822F809583238C93E8812E2BEFCF53
:1005D0008FB7F894EC912E2B2C938FBFEACF862FF8
:1005E000642F0C94B302FC0101900020E9F73197CD
:1005F000AF01481B590BBC0180E691E00C941F0130
:100600008F929F92AF92BF920F931F93CF93DF93DE
:10061000CDB7DEB7A1970FB6F894DEBF0FBECDBF42
:1006200019A2423008F44AE08E010F5D1F4F842E5C
:10063000912CB12CA12CA50194010E948A0AE62FCD
:10064000B901CA01EA30F4F4E05DD801EE938D01FE
:10065000232B242B252B79F790E080E0109719F0BD
:10066000CD010E94F302A1960FB6F894DEBF0FBE33
:10067000CDBFDF91CF911F910F91BF90AF909F9011
:100680008F900895E95CE1CF4F925F926F927F92D5
:100690008F929F92AF92BF92CF92DF92EF92FF9292
:1006A0000F931F93CF936B017C01742EAC019B01C0
:1006B0000E94850A882399F084E391E0CF911F91ED
:1006C0000F91FF90EF90DF90CF90BF90AF909F90F1
:1006D0008F907F906F905F904F900C94F302460143
:1006E0005701E894B7F82FEF3FEF4FE75FE7C501F9
:1006F000B4010E94850A81110DC02FEF3FEF4FE733
:100700005FE7C501B4010E94B40818161CF488E321
:1007100091E0D4CF2FEF3FEF4FE75FE4C701B60181
:100720000E94130A18161CF48CE391E0C7CF2FEF38
:100730003FEF4FE75FECC701B6010E94B40887FDA9
:10074000F3CF20E030E0A901C701B6010E94B40850
:1007500010E000E087FF0AC06DE280E691E00E94B1
:10076000BF018C01F7FAF094F7F8F094C0E060E074
:1007700070E080E09FE37C1641F020E030E040E252
:1007800051E40E94B908CF5FF6CFA70196010E94FD
:1007900048082B013C010E9432094B015C014AE0F0
:1007A0000E9400037C01E00EF11ECC23C1F1C501C3
:1007B000B4010E9461099B01AC01C301B2010E9416
:1007C00047084B015C016EE280E691E00E94BF01A8
:1007D000E80EF91EC15018F120E030E040E251E48B
:1007E000C501B4010E94180A2B013C010E94320984
:1007F0004B01B12CA12C4AE0C501B4010E940003B9
:10080000E80EF91EC501B4010E9461099B01AC010B
:10081000C301B2010E9447084B015C01DBCFC70155
:10082000CF911F910F91FF90EF90DF90CF90BF90ED
:10083000AF909F908F907F906F905F904F900895B2
:10084000CF92DF92EF92FF928D32E1F154F48A322F
:1008500009F44DC08B32D9F0FF90EF90DF90CF902C
:1008600008958F3209F456C08336B1F710924D01C6
:1008700010924E0110924F011092500110925101AE
:1008800010924C0110924B0110925B01E5CF81E573
:1008900091E00E940B080E9463099B01AC016091EA
:1008A0004D0170914E0180914F01909150010E9435
:1008B000480860934D0170934E0180934F019093CF
:1008C0005001CACFC0904D01D0904E01E0904F0131
:1008D000F090500181E591E00E940B080E946309AD
:1008E0009B01AC01C701B6010E944708E2CF81E538
:1008F00091E00E940B080E9463099B01AC0160918A
:100900004D0170914E0180914F01909150010E94D4
:10091000180ACFCFC0904D01D0904E01E0904F010A
:10092000F090500181E591E00E940B080E9463095C
:100930009B01AC01C701B6010E94B908BACF1F9252
:100940000F920FB60F9211242F933F934F935F9303
:100950006F937F938F939F93AF93BF93EF93FF9387
:1009600080E691E00E949D01FF91EF91BF91AF91D0
:100970009F918F917F916F915F914F913F912F91B7
:100980000F900FBE0F901F9018951F920F920FB6E9
:100990000F9211242F938F939F93EF93FF93E091E6
:1009A0007001F09171018081E0917601F091770101
:1009B00082FD1BC09081809179018F5F8F732091A0
:1009C0007A01821741F0E0917901F0E0E05AFE4FA0
:1009D000958F80937901FF91EF919F918F912F9146
:1009E0000F900FBE0F901F9018958081F4CF1F922B
:1009F0000F920FB60F9211242F933F938F939F93D3
:100A0000AF93BF9380915C0190915D01A0915E01D5
:100A1000B0915F0130914A0123E0230F2D3758F543
:100A20000196A11DB11D20934A0180935C01909312
:100A30005D01A0935E01B0935F01809146019091AA
:100A40004701A0914801B09149010196A11DB11D36
:100A50008093460190934701A0934801B0934901C8
:100A6000BF91AF919F918F913F912F910F900FBEAA
:100A70000F901F90189526E8230F0296A11DB11D17
:100A8000D2CF109263011092620188EE93E0A0E051
:100A9000B0E08093640190936501A0936601B093E8
:100AA00067018CE191E0909361018093600185EC96
:100AB00090E090936D0180936C0184EC90E09093B2
:100AC0006F0180936E0180EC90E0909371018093B0
:100AD000700181EC90E0909373018093720182EC3D
:100AE00090E0909375018093740186EC90E0909370
:100AF0007701809376011092790110927A01109219
:100B00007B0110927C011092FF011092030210925F
:100B10000202109204028EE291E09093FE01809313
:100B2000FD01E9E1F2E0108214821382158236960B
:100B300082E0E535F807B9F784E091E09093600230
:100B400080935F0280E091E0909362028093610263
:100B500084E0809363028093640288E091E0909344
:100B60005E0280935D028AE090E09093660280933B
:100B7000650284EF91E0909368028093670210927F
:100B80006B0210926A021092590210925A0210924D
:100B90005B0210925C02109269020895789484B509
:100BA000826084BD84B5816084BD85B5826085BD69
:100BB00085B5816085BD80916E00816080936E00F7
:100BC00010928100809181008260809381008091E9
:100BD000810081608093810080918000816080939A
:100BE00080008091B10084608093B1008091B0005A
:100BF00081608093B00080917A00846080937A0055
:100C000080917A00826080937A0080917A0081607E
:100C100080937A0080917A00806880937A001092A5
:100C2000C100E0917001F091710182E08083E09158
:100C30006C01F0916D011082E0916E01F0916F01F5
:100C40008FEC808310927801E0917401F09175012E
:100C500086E08083E0917201F09173018081806170
:100C60008083E0917201F0917301808188608083BC
:100C7000E0917201F0917301808180688083E0913E
:100C80007201F091730180818F7D8083412C512C02
:100C90003201439422242A94322C50E0C52E50E095
:100CA000D52E51E0509369028FB7F89440915C01C2
:100CB00050915D0160915E0170915F018FBF8091E5
:100CC000590290915A02A0915B02B0915C02481BBC
:100CD000590B6A0B7B0B8091650290916602B0E024
:100CE000A0E084179507A607B70708F017C1C0E072
:100CF00080916302C81760F4E0915F02F091600296
:100D0000EC0FF11D62E080810E94B302CF5FF0CF53
:100D1000912C80916402981608F05FC0092D10E0B4
:100D2000E0916102F0916202E00FF11F61E08081C9
:100D30000E94B302E0916102F0916202E00FF11FA4
:100D400060E080810E948102D301C201092C04C0AD
:100D5000880F991FAA1FBB1F0A94D2F75C017C0160
:100D6000E094F094812C809163028816F8F4C82DE9
:100D7000D0E0E0915F02F0916002EC0FFD1F8081F6
:100D80000E9455022496CC0FDD1FC350DE4F892BE5
:100D900041F4888199818A299B2999838883839446
:100DA000E2CF888199818E219F21F7CFE091610266
:100DB000F0916202E00FF11F61E080810E948102E8
:100DC0008091610290916202080F191F60E0F801A2
:100DD00080810E94B30293949CCFCDEFD1E0FE01BD
:100DE000878D90A1892B21F4148E368E258E11A229
:100DF000369652E0E933F50799F710E080916302E7
:100E0000181708F053C000E0E12EF12CEE0CFF1C87
:100E1000C7018B5F9D4F7C0120916402021708F08F
:100E200043C0F70160817181002E02C076956795FD
:100E30000A94E2F7129F90011124200F311DEDEF6B
:100E4000F1E080E0458D568D2417350709F4E1C0A7
:100E50008F5F36968A30B1F760FF24C0EDEFF1E086
:100E600090E080E0448D411118C0E0915D02F09166
:100E70005E02E20FF31F408156E0589FF001599F38
:100E8000F00D1124E350FE4F448F368F258F10A2B2
:100E9000178E61E00E94AF0005C0019636968A3039
:100EA000910501F70F5FB8CF1F5FA8CF80E099A130
:100EB0009111892F269692E0C933D907C1F79FB7C0
:100EC000F89440915C0150915D0160915E017091D8
:100ED0005F019FBF4093590250935A0260935B0297
:100EE00070935C028823D1F080911E028823B1F0B8
:100EF00080911C0290911D02019781F4C09119020A
:100F0000C1110FC0C114D10409F4CBCE0E948901D4
:100F1000882309F4C6CE0E940000C3CE1092690255
:100F2000F1CF6C2F80E691E00E94BF011C2F1D7F46
:100F30001D3221F086ED8C0F8230F8F4D0915B01E8
:100F4000D1110EC081E591E00E940B080E94630957
:100F500060934D0170934E0180934F019093500127
:100F600010924C0110924B011D3209F040C08D2FA0
:100F70000E942004C0935B0112C020914B0130916C
:100F80004C01C901019690934C0180934B012F5A5B
:100F90003E4FF901C0838F5A9E4FFC011082CD3322
:100FA00061F580915B010E94200480904D0190903A
:100FB0004E01A0904F01B0905001C501B4010E94B4
:100FC0002B090E9463099B01AC01C501B4010E9479
:100FD000B40840E0811142E0C501B4010E9444031D
:100FE00080E491E00E94F302109251018BCF86EDD4
:100FF0008C0F823008F4BBCFD2CFC33609F082CF3A
:1010000083E491E00E94F30280E491E00E94F30205
:1010100079CF61703FCF1F93FC0199278827BC01CE
:10102000E89411911032E9F3193010F01E30C8F332
:101030001B3251F01D3249F4689406C00E943208F8
:10104000610F711D811D911D119110531A30B0F364
:101050003EF490958095709561957F4F8F4F9F4F8F
:101060001F910895592F482F372F262F660F771F6E
:10107000881F991F660F771F881F991F620F731FA4
:10108000841F951F660F771F881F991F089550585A
:10109000BB27AA270E945F080C94D9090E94CB099C
:1010A00038F00E94D20920F039F49F3F19F426F459
:1010B0000C94C8090EF4E095E7FB0C94C209E92FE3
:1010C0000E94EA0958F3BA17620773078407950765
:1010D00020F079F4A6F50C940C0A0EF4E0950B2E92
:1010E000BA2FA02D0B01B90190010C01CA01A0017A
:1010F0001124FF27591B99F0593F50F4503E68F1D5
:101100001A16F040A22F232F342F4427585FF3CF15
:10111000469537952795A795F0405395C9F77EF4E6
:101120001F16BA0B620B730B840BBAF09150A1F02F
:10113000FF0FBB1F661F771F881FC2F70EC0BA0FB5
:10114000621F731F841F48F4879577956795B7953D
:10115000F7959E3F08F0B0CF9395880F08F0992738
:10116000EE0F9795879508950E949E0908F481E0F7
:1011700008950E94CD080C94D9090E94D20958F014
:101180000E94CB0940F029F45F3F29F00C94C2097A
:1011900051110C940D0A0C94C8090E94EA0968F3D5
:1011A0009923B1F3552391F3951B550BBB27AA2720
:1011B00062177307840738F09F5F5F4F220F331F5A
:1011C000441FAA1FA9F335D00E2E3AF0E0E832D022
:1011D00091505040E695001CCAF72BD0FE2F29D025
:1011E000660F771F881FBB1F261737074807AB07F7
:1011F000B0E809F0BB0B802DBF01FF2793585F4F6C
:101200003AF09E3F510578F00C94C2090C940D0AF7
:101210005F3FE4F3983ED4F3869577956795B7954D
:10122000F7959F5FC9F7880F911D9695879597F958
:101230000895E1E0660F771F881FBB1F62177307D1
:101240008407BA0720F0621B730B840BBA0BEE1FE6
:1012500088F7E09508950E9432096894B1110C94C2
:101260000D0A08950E94F20988F09F5798F0B92F4F
:101270009927B751B0F0E1F0660F771F881F991FCB
:101280001AF0BA95C9F714C0B13091F00E940C0A57
:10129000B1E008950C940C0A672F782F8827B85F67
:1012A00039F0B93FCCF3869577956795B395D9F723
:1012B0003EF490958095709561957F4F8F4F9F4F2D
:1012C0000895E89409C097FB3EF490958095709539
:1012D00061957F4F8F4F9F4F9923A9F0F92F96E982
:1012E000BB279395F695879577956795B795F111F7
:1012F000F8CFFAF4BB0F11F460FF1BC06F5F7F4F94
:101300008F4F9F4F16C0882311F096E911C07723A5
:1013100021F09EE8872F762F05C0662371F096E8AE
:10132000862F70E060E02AF09A95660F771F881F7D
:10133000DAF7880F9695879597F90895990F000821
:10134000550FAA0BE0E8FEEF16161706E807F90797
:10135000C0F012161306E407F50798F0621B730B32
:10136000840B950B39F40A2661F0232B242B252BB3
:1013700021F408950A2609F4A140A6958FEF811D56
:10138000811D089597F99F6780E870E060E00895F7
:101390009FEF80EC089500240A941616170618068D
:1013A0000906089500240A94121613061406050669
:1013B0000895092E0394000C11F4882352F0BB0FFA
:1013C00040F4BF2B11F460FF04C06F5F7F4F8F4F5D
:1013D0009F4F089557FD9058440F551F59F05F3F98
:1013E00071F04795880F97FB991F61F09F3F79F047
:1013F00087950895121613061406551FF2CF4695C9
:10140000F1DF08C0161617061806991FF1CF86954A
:101410007105610508940895E894BB27662777272E
:10142000CB0197F908950E949E0908F48FEF089563
:101430000E942B0A0C94D9090E94CB0938F00E9413
:10144000D20920F0952311F00C94C2090C94C8091C
:1014500011240C940D0A0E94EA0970F3959FC1F3C0
:10146000950F50E0551F629FF001729FBB27F00D52
:10147000B11D639FAA27F00DB11DAA1F649F6627A7
:10148000B00DA11D661F829F2227B00DA11D621FF6
:10149000739FB00DA11D621F839FA00D611D221FB0
:1014A000749F3327A00D611D231F849F600D211D94
:1014B000822F762F6A2F11249F5750409AF0F1F017
:1014C00088234AF0EE0FFF1FBB1F661F771F881F80
:1014D00091505040A9F79E3F510580F00C94C209ED
:1014E0000C940D0A5F3FE4F3983ED4F3869577950C
:1014F0006795B795F795E7959F5FC1F7FE2B880F26
:10150000911D9695879597F908950E949E09880BDD
:10151000990B0895A1E21A2EAA1BBB1BFD010DC059
:10152000AA1FBB1FEE1FFF1FA217B307E407F50793
:1015300020F0A21BB30BE40BF50B661F771F881F6F
:10154000991F1A9469F760957095809590959B0105
:10155000AC01BD01CF010895EE0FFF1F0590F4917E
:08156000E02D0994F894FFCF7F
:1015680006070809020304053738392F3435362AA7
:101578003132332D63303D2B00000000BF011F01C5
:101588004C010C027D015B016F0100000000EF02BD
:10159800AF027E026E616E00696E66006F7666004D
:0615A8000D0A0020000006
:00000001FF
