:100000000C945D000C9485000C9485000C94850084
:100010000C9485000C9485000C9485000C9485004C
:100020000C9485000C9485000C9485000C9485003C
:100030000C9485000C9485000C9485000C9485002C
:100040000C94ED020C9485000C9485000C948500B2
:100050000C9485000C9485000C9485000C9485000C
:100060000C9485000C94850000000008000201003B
:100070000003040700000000000000000000000072
:10008000250028002B0000000000240027002A0083
:10009000040404040404040402020202020203032E
:1000A0000303030301020408102040800102040836
:1000B00010200102040810201B0411241FBECFEFE2
:1000C000D8E0DEBFCDBF11E0A0E0B1E0E6ECF8E0A3
:1000D00002C005900D92AC31B107D9F721E0ACE137
:1000E000B1E001C01D92A034B207E1F710E0CDE508
:1000F000D0E004C02197FE010E945B04CC35D107FB
:10010000C9F70E9437030C9461040C94000090E03E
:10011000FC01EC55FF4F249180579F4FFC018491C7
:10012000882399F090E0880F991FFC01EA57FF4F50
:10013000A591B491FC01E458FF4F859194918FB73C
:10014000F894EC91E22BEC938FBF0895AF92BF929D
:10015000CF92DF92EF92FF920F931F93CF93DF9393
:100160006C017B018B01040F151FEB015E01AE18C2
:10017000BF08C017D10759F06991D601ED91FC91E4
:100180000190F081E02DC6010995892B79F7C50111
:10019000DF91CF911F910F91FF90EF90DF90CF9063
:1001A000BF90AF90089590E0FC01E859FF4F249173
:1001B000FC01EC55FF4F3491FC01E057FF4FE491F7
:1001C000EE23C9F0222339F0233001F1A8F42130C5
:1001D00019F1223029F1F0E0EE0FFF1FE458FF4F34
:1001E000A591B4918FB7F894EC91611126C0309528
:1001F0003E233C938FBF08952730A9F02830C9F0E3
:10020000243049F7809180008F7D03C08091800069
:100210008F7780938000DFCF84B58F7784BDDBCF6D
:1002200084B58F7DFBCF8091B0008F778093B00035
:10023000D2CF8091B0008F7DF9CF3E2BDACF3FB780
:10024000F8948091210190912201A0912301B09115
:10025000240126B5A89B05C02F3F19F00196A11DCA
:10026000B11D3FBFBA2FA92F982F8827BC01CD0100
:10027000620F711D811D911D42E0660F771F881F5F
:10028000991F4A95D1F70895089590E080E0089568
:100290008F929F92AF92BF920F931F93CF93DF9352
:1002A000CDB7DEB7A1970FB6F894DEBF0FBECDBFB6
:1002B00019A2423008F44AE08E010F5D1F4F842ED0
:1002C000912CB12CA12CA50194010E943904E62F98
:1002D000B901CA01EA3044F5E05DD801EE938D0121
:1002E000232B242B252B79F790E080E0109769F0E1
:1002F000FD0101900020E9F73197AF014A1B5B0B2C
:10030000BD0188E291E00E94A600A1960FB6F89484
:10031000DEBF0FBECDBFDF91CF911F910F91BF9078
:10032000AF909F908F900895E95CD7CFFC0101902A
:100330000020E9F73197AF01481B590BBC0188E257
:1003400091E00C94A600CF93DF93EC0160E08E81E6
:100350000E94D30061E08E810E94D30060E08E8114
:100360000E94D3008BE891E00197F1F7DF91CF91E4
:100370000895CF92DF92EF92FF920F931F93CF9346
:10038000DF936C017C0187E0E80EF11CD0E0C0E057
:10039000062F10E0B8010C2E02C0759567950A94DF
:1003A000E2F76170F70181917F010E94D3002196ED
:1003B000C430D10579F7C601DF91CF911F910F911C
:1003C000FF90EF90DF90CF900C94A301CF92DF923B
:1003D000EF92FF920F931F93CF93DF93EC01F62ED2
:1003E000642F8C810E94D3008D818F3F19F060E0D3
:1003F0000E94D3000F2D10E08F8584FF25C06E0171
:1004000087E0C80ED11CF12CE12CB8010E2C02C0E3
:10041000759567950A94E2F76170F60181916F0115
:100420000E94D300FFEFEF1AFF0A88E0E816F104FC
:1004300061F7CE01DF91CF911F910F91FF90EF9067
:10044000DF90CF900C94A301B80184E07595679577
:100450008A95E1F7CE010E94B9016F2DCE01DF919F
:10046000CF911F910F91FF90EF90DF90CF900C9460
:10047000B90140E0682F88E291E00C94E601CF9347
:10048000DF93823029F4909137019860909337017F
:1004900080933B0110923C0180E480933D0180E118
:1004A00080933E0180E580933F0180912C010E9462
:1004B000870080912D018F3F11F00E94870080916D
:1004C0002E010E948700C8E2D1E09E0128523140EF
:1004D0008091370184FD0AC084E090E021962817BE
:1004E00039073CF48E810E948700EFCF88E090E0CE
:1004F000F5CF8BE39DE00197F1F760E080912C014F
:100500000E94D30060E080912E010E94D300809170
:100510002D018F3F19F060E00E94D30080913701D8
:1005200084FD39C063E088E291E00E94B901CBE428
:10053000D6E4CE010197F1F763E088E291E00E94F2
:10054000B9012197F1F763E088E291E00E94B901D7
:1005500083E592E00197F1F762E088E291E00E9482
:10056000B9018091370180620E94390284E0809352
:1005700038018CE00E94390281E00E9439028BE34D
:100580009FE10197F1F782E08093390186E0DF91E6
:10059000CF910C94390280620E9439028BE496E478
:1005A0000197F1F78091370180620E94390283E55B
:1005B00092E00197F1F78091370180620E94390241
:1005C000D0CF41E00E94E60181E090E008954AE04A
:1005D00060E070E0CB010C9448011F920F920FB6BF
:1005E0000F9211242F933F938F939F93AF93BF93B9
:1005F00080911D0190911E01A0911F01B0912001D9
:1006000030911C0123E0230F2D3758F50196A11DD1
:10061000B11D20931C0180931D0190931E01A09396
:100620001F01B09320018091210190912201A0919E
:100630002301B09124010196A11DB11D80932101D8
:1006400090932201A0932301B0932401BF91AF9115
:100650009F918F913F912F910F900FBE0F901F9000
:10066000189526E8230F0296A11DB11DD2CF7894CC
:1006700084B5826084BD84B5816084BD85B58260A7
:1006800085BD85B5816085BD80916E008160809358
:100690006E001092810080918100826080938100C1
:1006A00080918100816080938100809180008160D1
:1006B000809380008091B10084608093B10080912C
:1006C000B00081608093B00080917A008460809354
:1006D0007A0080917A00826080937A0080917A001B
:1006E000816080937A0080917A00806880937A009C
:1006F0001092C10082E00E943F02C0E0D0E08091F1
:1007000027018F5F8C3309F47DC080932701E1E0DE
:1007100080913B018111E0E0E195F0E0E85DFE4F62
:10072000848980680E9439028CE091E00E949601E1
:10073000E0913B01E23008F07CC0E150F0E0E85D80
:10074000FE4F848980680E943902809125018A3099
:1007500010F40E94E7026091250170E090E080E0D3
:100760004AE00E9448018AE191E00E94960180914E
:1007700026018A3010F40E94E7026091260170E0A1
:1007800090E080E04AE00E9448018AE191E00E9406
:100790009601809127018A3010F40E94E70260914F
:1007A000270170E090E080E04AE00E9448010E944A
:1007B0001F014B015C0188EEC82E83E0D82EE12C8E
:1007C000F12C0E941F01681979098A099B09683E6A
:1007D000734081059105A8F321E0C21AD108E10810
:1007E000F10888EE880E83E0981EA11CB11CC1148C
:1007F000D104E104F10429F7209709F480CF0E9485
:1008000000007DCF10922701809126018F5F8C33ED
:1008100019F0809326017BCF10922601809125014B
:100820008F5F883119F08093250171CF10922501D7
:100830006ECFE1E083CFE8E2F1E01382128284E040
:1008400091E09183808382E084838FEF858383E0CE
:10085000868384E0878385E0808786E0818787E0E0
:1008600082871386148615861686178681E00C9477
:100870003F02A1E21A2EAA1BBB1BFD010DC0AA1F3D
:10088000BB1FEE1FFF1FA217B307E407F50720F0F9
:10089000A21BB30BE40BF50B661F771F881F991F74
:1008A0001A9469F760957095809590959B01AC01BD
:1008B000BD01CF010895EE0FFF1F0590F491E02DCB
:0608C0000994F894FFCF3B
:1008C60000000000E102A600450144014469676991
:0C08D60074616C20436C6F636B003A008F
:00000001FF
