:100000000C9463000C948B000C948B000C948B006C
:100010000C948B000C948B000C948B000C948B0034
:100020000C948B000C948B000C948B000C948B0024
:100030000C948B000C948B000C948B000C948B0014
:100040000C94D0050C948B000C948B000C948B00BA
:100050000C948B000C948B000C948B000C948B00F4
:100060000C941A060C948B0000000000240027005A
:100070002A0000000000250028002B0000000000DE
:1000800023002600290004040404040404040202DA
:100090000202020203030303030301020408102007
:1000A0004080010204081020010204081020000012
:1000B0000008000201000003040700000000000027
:1000C000000039075D0B11241FBECFEFD8E0DEBF63
:1000D000CDBF23E0A0E0B2E001C01D92AB35B20776
:1000E000E1F712E0A0E0B1E0EAE3FBE102C0059035
:1000F0000D92A030B107D9F710E0C2E6D0E004C0FD
:100100002197FE010E94980BC136D107C9F70E94C2
:10011000C4070C94900D0C9400000895089596E087
:10012000899FD0011124AA52BD4F90967C936E9363
:100130005F9791E091969C939197E0914303F091A2
:10014000440390914203992339F0309751F0811183
:1001500008C08091F2020994309719F05C968C9156
:10016000FACF0895CF92DF92EF92FF920F931F93F1
:1001700096E0899FF0011124EA52FD4F11A2278DCC
:1001800030A12130310551F178F02230310509F4E8
:1001900051C02330310509F452C01F910F91FF90D7
:1001A000EF90DF90CF9008956623B9F361E070E09F
:1001B0000E948F002FB7F8948091BE029091BF02E9
:1001C000A091C002B091C1022FBF80932E039093E3
:1001D0002F03A0933003B0933103DFCF9FB7F89480
:1001E000C090BE02D090BF02E090C002F090C10269
:1001F0009FBF00912E0310912F0320913003309167
:100200003103C01AD10AE20AF30A009140031091A7
:10021000410330E020E00C151D052E053F0550F48C
:1002200062E070E01F910F91FF90EF90DF90CF9010
:100230000C948F006111B1CF63E070E0F3CF70E0F8
:1002400060E0F0CF0895AF92BF92CF92DF92EF922D
:10025000FF920F931F93CF93DF936C017B018B0170
:10026000040F151FEB015E01AE18BF08C017D107C0
:1002700059F06991D601ED91FC910190F081E02D4A
:10028000C6010995892B79F7C501DF91CF911F919F
:100290000F91FF90EF90DF90CF90BF90AF900895B7
:1002A000833081F028F4813099F08230A9F00895EC
:1002B0008730A9F08830C9F08430B1F48091800093
:1002C0008F7D03C0809180008F7780938000089598
:1002D00084B58F7784BD089584B58F7DFBCF8091E1
:1002E000B0008F778093B00008958091B0008F7D2B
:1002F000F9CFCF93DF93282F30E0F901E255FF4F7C
:100300008491F901E656FF4FD491F901EA57FF4F66
:10031000C491CC23A1F081110E945001EC2FF0E098
:10032000EE0FFF1FE458FF4FA591B491EC91ED2320
:1003300081E090E009F480E0DF91CF91089580E0C2
:1003400090E0FACF862F0C9479011F93CF93DF931F
:10035000282F30E0F901E255FF4F8491F901E6566C
:10036000FF4FD491F901EA57FF4FC491CC23A9F074
:10037000162F81110E945001EC2FF0E0EE0FFF1FAD
:10038000EE58FF4FA591B4918FB7F894EC911111ED
:1003900008C0D095DE23DC938FBFDF91CF911F91F2
:1003A0000895DE2BF8CF862F642F0C94A501CF93F0
:1003B000DF9390E0FC01E656FF4F24918A579F4F50
:1003C000FC0184918823C9F090E0880F991FFC01FB
:1003D000E859FF4FA591B491FC01EE58FF4FC5912C
:1003E000D49161110DC09FB7F8948C912095822310
:1003F0008C938881282328839FBFDF91CF91089514
:10040000623051F49FB7F8943C91822F80958323FA
:100410008C93E8812E2BEFCF8FB7F894EC912E2B95
:100420002C938FBFEACF862F642F0C94D7013FB750
:10043000F8948091B3029091B402A091B502B0916A
:10044000B60226B5A89B05C02F3F19F00196A11D45
:10045000B11D3FBFBA2FA92F982F8827BC01CD010E
:10046000620F711D811D911D42E0660F771F881F6D
:10047000991F4A95D1F708958F929F92AF92BF929C
:10048000CF92DF92EF92FF924B015C010E94170224
:100490006B017C010E9417026C197D098E099F096E
:1004A000683E734081059105A8F321E0821A910806
:1004B000A108B10888EEC80E83E0D81EE11CF11C2B
:1004C00081149104A104B10429F7FF90EF90DF900B
:1004D000CF90BF90AF909F908F9008952091410250
:1004E000260F3327331F21323105ECF420918A0285
:1004F000FC0190E080E0243069F082E00895A09152
:1005000041022191AC014F5D5D4FA40FB52FB11D8C
:100510002C930196861798F380914102680F60939F
:10052000410280E0089581E0089510928A0281E0FE
:10053000809389021092640261E082E10E94A50129
:1005400061E083E10E94A501E9EBF0E080818E7F0C
:10055000808380818D7F808388E48093B80085E4E8
:100560008093BC000895CF93DF9391E09093200295
:100570008823B9F0C091B800D091BA008091BC0036
:100580008A7B8093BC0060E082E10E94A50160E06C
:1005900083E10E94A5010E949502D093BA00C09306
:1005A000B800DF91CF9108950895E091C90280913C
:1005B000C802E81730F4F0E0E050FE4F808190E090
:1005C00008958FEF9FEF08959091C9028091C8021E
:1005D0002FEF3FEF981748F4E92FF0E0E050FE4F7F
:1005E000208130E09F5F9093C902C90108958091F6
:1005F000C8029091C902891B990B0895CF92DF928E
:10060000EF92FF920F931F93CF93DF937C01CB0167
:100610008A0120919002222389F0EB016B01C40E24
:10062000D51ECC15DD0569F06991D701ED91FC91DE
:100630000190F081E02DC7010995F3CF642F0E944E
:100640006E02C801DF91CF911F910F91FF90EF9043
:10065000DF90CF900895CF93DF931F92CDB7DEB791
:100660006983209190022223F9F02091C602203262
:1006700058F021E030E0FC013383228390E080E0F9
:100680000F90DF91CF9108958091C702E82FF0E09D
:10069000EF56FD4F998190838F5F8093C7028093BF
:1006A000C60281E090E0ECCF61E0CE0101960E94AD
:1006B0006E02F7CFCF92DF92EF92FF920F931F93CC
:1006C000CF93DF93FC01C48121E020939002C0937B
:1006D000B1021092C7021092C6028385682B8AEC81
:1006E00092E00E942B03D091C602D13208F092C052
:1006F0000E9417026B017C0180918A02811165C002
:1007000082E080938A0281E0809389028FEF809358
:10071000880210928702D0938602A1E9B2E0E6E651
:10072000F2E080E0D81385C01092650280916502E6
:10073000CC0FC82BC093650280916402813009F010
:100740007CC0109264020E9417026B017C018091B0
:1007500065028093BB0080918C0290918D02A091E4
:100760008E02B0918F02892B8A2B8B2B99F00E94DD
:10077000170200918C0210918D0220918E0230910F
:100780008F026C197D098E099F0906171707280724
:100790003907E0F18091BC0083FDD9CF85EC8093CF
:1007A000BC000E9417026B017C0180918A0282309A
:1007B00009F445C0809188028F3F61F180918802E1
:1007C000803241F18091880225C080918C02909105
:1007D0008D02A0918E02B0918F02892B8A2B8B2BD8
:1007E00009F48ACF0E94170200918C0210918D02A9
:1007F00020918E0230918F026C197D098E099F091C
:10080000061717072807390708F076CF80918B0263
:100810000E94B3021092C7021092C6021092900278
:10082000DF91CF911F910F91FF90EF90DF90CF90CC
:1008300008959D9191938F5F75CF85EEB0CF809194
:100840008C0290918D02A0918E02B0918F02892B23
:100850008A2B8B2B09F4A9CF0E94170200918C02DE
:1008600010918D0220918E0230918F026C197D09BA
:100870008E099F09061717072807390708F095CF33
:10088000C5CF90E080E0089561E08AE00E94A50174
:1008900060E08BE00E94A50168EE73E080E090E0EC
:1008A0000C943C020F931F93CF938C01C62F0E9490
:1008B0005A036C2F6460C8010E945A036C2F6B7F2F
:1008C000C8010E945A0383EC90E00197F1F7CF91A1
:1008D0001F910F9108950F931F93CF93DF938C0176
:1008E000D62FC42F607F642B0E94520480E1D89FD2
:1008F000B00111246C2BC801DF91CF911F910F9192
:100900000C94520440E061E08BE493E00E946B049D
:100910008BE39FE10197F1F70895CF93DF93CDB774
:10092000DEB728970FB6F894DEBF0FBECDBF98E0B4
:10093000E9E1F1E0DE01119601900D929A95E1F75F
:1009400090915303961710F46FEF690F262F30E044
:10095000220F331F41E050E04C0F5D1F240F351F65
:10096000F9016081680F606840E08BE493E02896AD
:100970000FB6F894DEBF0FBECDBFDF91CF910C94C0
:100980006B04CF93DF931092C9021092C8021092A9
:10099000C7021092C6020E9495028DE890E09093E3
:1009A000C5028093C4028EE890E09093C3028093C6
:1009B000C2021092500380915503823018F098E0E3
:1009C000909350038093530362E370E080E090E0E3
:1009D0000E943C02609156038BE493E00E945A030C
:1009E00068EE73E080E090E00E943C0260E38BE4FC
:1009F00093E00E945204CBE4D6E4CE010197F1F7D4
:100A000060E38BE493E00E9452042197F1F760E3E6
:100A10008BE493E00E94520483E592E00197F1F7A2
:100A200060E28BE493E00E945204609150036062A4
:100A300040E08BE493E00E946B0484E080935103D8
:100A400040E06CE08BE493E00E946B040E9482041F
:100A500082E08093520340E066E08BE493E00E94E2
:100A60006B0440E062E08BE493E00E946B048BE354
:100A70009FE10197F1F7DF91CF91089541E00E9446
:100A80006B0481E090E00895FC0101900020E9F7FB
:100A90003197AF01481B590BBC018BE493E00C94D8
:100AA0002301FC0180819181009711F00C943A0C94
:100AB0000895EF92FF920F931F93CF93DF93EC0172
:100AC0007B018A0188819981009729F02A813B81E5
:100AD0002417350788F4B8016F5F7F4F0E94C30C5D
:100AE000009791F0998388831B830A832C813D8131
:100AF000232B11F4FC0110821D830C83B701888124
:100B000099810E94890D0CC088819981009711F00C
:100B10000E943A0C198218821D821C821B821A8242
:100B2000CE01DF91CF911F910F91FF90EF9008952B
:100B300085ED8093BC0080918C0290918D02A091F4
:100B40008E02B0918F020796A11DB11D23E0B695CC
:100B5000A795979587952A95D1F72091BC0024FDFC
:100B600003C010928A02089540918C0250918D0228
:100B700060918E0270918F02452B462B472B69F3B3
:100B80000097A105B10541F025E32A95F1F7000092
:100B90000197A109B109E1CF80918B020C94B302B6
:100BA0001F920F920FB60F9211242F933F938F93A2
:100BB0009F93AF93BF938091BE029091BF02A0918B
:100BC000C002B091C1023091B20223E0230F2D3751
:100BD00058F50196A11DB11D2093B2028093BE026B
:100BE0009093BF02A093C002B093C1028091B30260
:100BF0009091B402A091B502B091B6020196A11DE8
:100C0000B11D8093B3029093B402A093B502B09348
:100C1000B602BF91AF919F918F913F912F910F900D
:100C20000FBE0F901F90189526E8230F0296A11D66
:100C3000B11DD2CF1F920F920FB60F9211242F9396
:100C40003F934F935F936F937F938F939F93AF9354
:100C5000BF93EF93FF938091B900887F803609F4AA
:100C60004AC0F0F5883209F4A7C018F5803109F4BC
:100C70009BC0B8F4882309F4F9C0883009F494C003
:100C8000FF91EF91BF91AF919F918F917F916F9164
:100C90005F914F913F912F910F900FBE0F901F903A
:100CA0001895883109F488C0803251F78093880202
:100CB00014C0803409F49DC040F48033B9F3883304
:100CC000F9F68093880285ECB0C0803509F485C0C0
:100CD000883509F496C0883499F60E949805D0CFDB
:100CE000883909F48CC038F5883729F050F48836F3
:100CF00011F0803729F683E080938A021092630214
:100D000057C0883809F47BC0803919F0803809F061
:100D1000B7CF80916302803208F071C0E091630226
:100D200081E08E0F809363028091BB00F0E0ED5B69
:100D3000FD4F80833DC0803B39F0E0F4803A09F4F8
:100D400079C0883A09F09CCF84E080938A0210929F
:100D5000420210924102E091C402F091C50209954D
:100D60008091410281110FC081E080934102109275
:100D7000210209C0803C09F4A6CF883C09F4A3CF26
:100D8000883B09F07DCFE091420281E08E0F809395
:100D90004202F0E0EF5DFD4F80818093BB009091B7
:100DA00042028091410229C0809165028093BB007C
:100DB00085EC8093BC0064CF90918702809186027D
:100DC000981758F5E091870281E08E0F8093870293
:100DD000F0E0EA59FD4F8081E9CFE091870281E0A0
:100DE0008E0F809387028091BB00F0E0EA59FD4F9F
:100DF000808390918702809186029817C8F285E8D7
:100E0000D8CFE091870281E08E0F80938702809196
:100E1000BB00F0E0EA59FD4F808380918902811187
:100E20005CCF81E08093640284EA8093BC001092DE
:100E30008A0226CF85EC8093BC0010928A028091B2
:100E40006302803230F4E0916302F0E0ED5BFD4F2D
:100E500010826091630270E0E091C202F091C302DF
:100E600083E492E00995109263020ACF10928802FF
:100E700034CF1092CD021092CC0288EE93E0A0E025
:100E8000B0E08093CE029093CF02A093D002B093B3
:100E9000D10285E291E09093CB028093CA02109236
:100EA0004E0310924D0381E491E090934C038093A4
:100EB0004B038FE380934F0384E18093540384E0DA
:100EC00080935503109256031092460310924503E7
:100ED000109248031092470310924A03109249035C
:100EE00044E050E069E471E085E493E00E94590534
:100EF0001092D8021092DC021092DB021092DD02F6
:100F000087E391E09093D7028093D602E2EFF2E07C
:100F10001082148213821582369683E0EE32F8072F
:100F2000B9F783E091E0909339038093380380E030
:100F300091E090933B0380933A0384E080933C03D9
:100F400083E080933D0387E091E0909337038093A3
:100F500036038AE090E090933F0380933E0384EF52
:100F600091E09093410380934003109244031092C8
:100F70004303109232031092330310923403109201
:100F80003503109242030895CF93DF93CDB7DEB7B8
:100F90006C970FB6F894DEBF0FBECDBF789484B5C2
:100FA000826084BD84B5816084BD85B5826085BD65
:100FB00085B5816085BD80916E00816080936E00F3
:100FC00010928100809181008260809381008091E5
:100FD0008100816080938100809180008160809396
:100FE00080008091B10084608093B1008091B00056
:100FF00081608093B00080917A00846080937A0051
:1010000080917A00826080937A0080917A0081607A
:1010100080937A0080917A00806880937A001092A1
:10102000C10061E08AE00E94D70161E08BE00E948C
:10103000D70161E08CE00E94D7010E94C1040E94A8
:10104000C10488E08093560360E08BE493E00E9443
:101050005A038EE491E00E94440561E080E00E9422
:101060008D0481E691E00E94440562E080E00E94E8
:101070008D0486E791E00E94440563E080E00E94D1
:101080008D048BE891E00E94440568EB7BE080E0F2
:1010900090E00E943C020E9482040E94440464E1A9
:1010A00070E080E090E00E943C02812C912C540181
:1010B00083943E0123E1620E711C6E0139E1C30E7F
:1010C000D11C0E94820480E991E00E94440564E6FC
:1010D00070E080E090E00E943C0281E08093420357
:1010E0008FB7F8944091BE025091BF026091C00248
:1010F0007091C1028FBF8091320390913303A09110
:101100003403B0913503481B590B6A0B7B0B80915C
:101110003E0390913F03B0E0A0E084179507A60737
:10112000B70708F015C110E080913C03181760F470
:10113000E0913803F0913903E10FF11D62E0808105
:101140000E94D7011F5FF0CF312C80913D033816EC
:1011500008F064C0E32CF12CE0913A03F0913B03DA
:10116000EE0DFF1D61E080810E94D701E0913A03FE
:10117000F0913B03EE0DFF1D60E080810E94A50110
:10118000D501C401032C04C0880F991FAA1FBB1FDF
:101190000A94D2F79C8F8B8F2C0140945094212C71
:1011A00080913C03281618F5022D10E0E0913803D9
:1011B000F0913903E00FF11F80810E9479010C5FEB
:1011C0001F4F000F111FF801EA52FD4F892B51F4F8
:1011D000808191812B8D3C8D822B932B91838083F9
:1011E0002394DECF8081918184219521F7CFE091F6
:1011F0003A03F0913B03EE0DFF1D61E080810E94F8
:10120000A50180913A0390913B03E80EF91E60E03E
:10121000F70180810E94D701339497CF06ED12E049
:101220007801F701878D90A1892B31F4148E2FEF6F
:101230003FEF368F258F11A236E0E30EF11C52E10D
:10124000E51653E0F50669F7512C80913C035816DA
:1012500008F053C0412C252C312C220C331CC10129
:1012600082529D4F1C0120913D03421608F043C05D
:10127000F10160817181042C02C0769567950A9412
:10128000E2F7529E90011124240D311DE6EDF2E0AB
:1012900080E0458D568D2417350709F40CC28F5F09
:1012A00036968A30B1F760FF24C0E6EDF2E090E0B8
:1012B00080E0448D411118C0E0913603F09137036E
:1012C000E20FF31F408156E0589FF001599FF00D47
:1012D0001124EA52FD4F448F368F258F10A2178EAE
:1012E00061E00E94B20005C0019636968A309105F1
:1012F00001F74394B8CF5394A8CF80E0F80191A1AF
:101300009111892F0A5F1F4FE016F106B9F79FB7B9
:10131000F8944091BE025091BF026091C00270915A
:10132000C1029FBF40933203509333036093340351
:1013300070933503882361F08091F702882341F090
:101340008091F5029091F6025090F202019719F007
:1013500010924203512C8E010F5F1F4F7801F8014C
:1013600011821082138212821582148250E040E0B2
:101370006AE871E0C8010E9459050A5F1F4F06150F
:10138000170569F7552009F495C00E94820480E989
:1013900091E00E9444050091BC021091BD0262E000
:1013A000802F0E948D0441E0652D8BE493E00E9424
:1013B0006B0464EF71E080E090E00E943C02FAE28E
:1013C0005F1619F023E2521288C01092BD021092EB
:1013D000BC020E9444040E9482048091BC0290914D
:1013E000BD02049709F066C08091BA029091BB02D9
:1013F000181619060CF029C18091B8029091B90213
:1014000001969093B9028093B8021092BB02109299
:10141000BA021092BD021092BC020E94820462E0E5
:1014200080E00E948D0485EA91E00E94440568EE08
:1014300073E080E090E00E943C020E9444048091AE
:10144000B8029091B9020397A9F51092B9021092CF
:10145000B8020E94820461E080E00E948D0489ED60
:1014600091E00E94440562E080E00E948D048EEECF
:1014700091E00E9444050AE010E061E08CE00E94E7
:10148000A50168EE73E080E090E00E943C0260E01D
:101490008CE00E94A50168EE73E080E090E00E947D
:1014A0003C020150110949F764EF71E080E090E0DF
:1014B0000E943C02CE010D960E945105CE01079676
:1014C0000E945105C7010E94510580E090E0892BE0
:1014D00009F4F7CD0E940000F4CD8091490390916A
:1014E0004A030817190730F4E0914503F0914603C9
:1014F000309779F51092B702E7EBF2E020812511E1
:1015000086C01C8A1B8A1E8A1D8A188E1F8A598EC5
:101510001A8EF60101900020E9F731978F010C191E
:101520001D09B8016F5F7F4F90E080E00E94C30CFF
:10153000009791F09C8B8B8B1E8B0D8B2F89388D98
:10154000232B09F443C0188F0F8BB6010E94890D1D
:101550000DC0E00FF11FD2CF8B899C890097C9F590
:101560001C8A1B8A188E1F8A1E8A1D8A0091BC0243
:101570001091BD02F6E0F09F2001F19F500C112464
:101580004E0C5F1CF20180819181009739F16B89CB
:101590007C896115710501F1428153812F89388D54
:1015A00042175307C8F00E94890D8F89988DF20168
:1015B00095838483188E1F8AC3010E9451050F5F93
:1015C0001F4F1093BD020093BC0207CFFC01108295
:1015D000BACF0E943A0CC4CF0E943A0C26E0209F5A
:1015E000F001219FF00D1124EE0DFF1D8B899C89C8
:1015F000918380838D899E89938382838F89988D3F
:10160000958384831C8A1B8A1E8A1D8AD3CF081760
:10161000190730F4E0914503F0914603309791F4B7
:101620001092B702E7EBF2E08081851509F4D5CE80
:101630008091BA029091BB0201969093BB02809375
:10164000BA02BDCFE00FF11FEFCF892B09F0F7CE23
:101650001092BD021092BC020E94820461E080E000
:101660000E948D048AEB91E00E94440562E085E0CF
:101670000E948D048EEC91E00E94440560ED77E0BD
:1016800080E090E00E943C0260E08AE00E94A501B8
:1016900061E08BE00E94A50160ED77E080E090E0E2
:1016A0000E943C0261E08AE00E94A50160E08BE0BC
:1016B0000E94A501C4CE617014CE85E493E00C9421
:1016C00051052F923F924F925F926F927F928F922D
:1016D0009F92AF92BF92CF92DF92EF92FF920F93C1
:1016E0001F93CF93DF93CDB7DEB7CA1BDB0B0FB6CB
:1016F000F894DEBF0FBECDBF09942A883988488888
:101700005F846E847D848C849B84AA84B984C8841D
:10171000DF80EE80FD800C811B81AA81B981CE0F14
:10172000D11D0FB6F894DEBF0FBECDBFED010895F9
:10173000EE0FFF1F0590F491E02D09940F931F9376
:10174000CF93DF938230910510F482E090E0E09136
:101750005903F0915A0330E020E0B0E0A0E0309768
:1017600099F42115310509F44AC0281B390B24309E
:101770003105D8F58A819B816115710589F1FB01DD
:1017800093838283FE0111C04081518102811381C4
:1017900048175907E0F04817590799F4109761F076
:1017A00012960C93129713961C933296CF01DF91E9
:1017B000CF911F910F9108950093590310935A03ED
:1017C000F4CF2115310551F04217530738F0A90124
:1017D000DB019A01BD01DF01F801C1CFEF01F9CFB3
:1017E00090935A0380935903CDCFFE01E20FF31F6C
:1017F000819391932250310939832883D7CF209147
:10180000570330915803232B41F420911501309157
:101810001601309358032093570320911301309100
:1018200014012115310541F42DB73EB74091170140
:1018300050911801241B350BE0915703F091580388
:10184000E217F307A0F42E1B3F0B2817390778F097
:10185000AC014E5F5F4F2417350748F04E0F5F1FF6
:101860005093580340935703819391939FCFF0E097
:10187000E0E09CCFCF93DF930097E9F0FC01329733
:1018800013821282A0915903B0915A03ED0130E006
:1018900020E01097A1F420813181820F931F2091C5
:1018A0005703309158032817390709F061C0F093A6
:1018B0005803E0935703DF91CF910895EA01CE17C3
:1018C000DF07E8F54A815B819E0141155105B1F7BB
:1018D000E901FB83EA8349915991C40FD51FEC17A5
:1018E000FD0761F4808191810296840F951FE901C3
:1018F00099838883828193819B838A83F0E0E0E0EF
:1019000012968D919C9113970097B9F52D913C916A
:101910001197CD010296820F931F209157033091AA
:1019200058032817390739F6309751F510925A03A2
:1019300010925903B0935803A0935703BCCFD3839D
:10194000C28340815181840F951FC817D90761F464
:101950004E5F5F4F88819981480F591F51834083A3
:101960008A819B81938382832115310509F0B0CF51
:10197000F0935A03E09359039ECFFD01DC01C0CFE1
:1019800013821282D7CFB0E0A0E0E9ECFCE00C9427
:10199000630B8C01009751F4CB010E949E0B8C01CC
:1019A000C801CDB7DEB7E0E10C947F0BFC01E60F78
:1019B000F71F9C0122503109E217F30708F49DC07C
:1019C000D901CD91DC911197C617D70798F0C53092
:1019D000D10530F3CE0104978617970708F3C61B8D
:1019E000D70B2297C193D1936D937C93CF010E9423
:1019F0003A0CD6CF5B01AC1ABD0A4C018C0E9D1E71
:101A0000A0915903B0915A03512C412CF12CE12C97
:101A1000109731F5809157039091580388159905D7
:101A200009F05CC04616570608F058C080911301B3
:101A300090911401009741F48DB79EB74091170122
:101A400050911801841B950BE817F90708F055C051
:101A5000F0935803E0935703F90171836083A0CF9B
:101A60008D919C91119712966C90129713967C9081
:101A70001397A815B90559F56C0142E0C40ED11CA5
:101A8000CA14DB0420F1AC014A195B09DA01129691
:101A9000159780F06282738251834083D9016D93E0
:101AA0007C93E114F10471F0D7011396FC93EE934B
:101AB000129776CF22968C0F9D1FF9019183808318
:101AC000F301EFCFF0935A03E093590369CF48161F
:101AD000590608F42C017D01D3019ACFCB010E9455
:101AE0009E0B7C01009749F0AE01B8010E94800D69
:101AF000C8010E943A0C870153CF10E000E050CF9C
:101B0000FB01DC0102C001900D9241505040D8F71A
:101B10000895FB01DC0101900D920020E1F708958A
:101B200010E0C2E6D0E004C0FE010E94980B2196AE
:0A1B3000C336D107C9F7F894FFCFC0
:101B3A000304050607080931323334353637383994
:101B4A002A302300005B0380000000400014005488
:101B5A0000000000002B03FE024104D402F702E455
:101B6A0002D502000000001302D301A20100000006
:101B7A00003E052301410422013132333400202082
:101B8A002020204175746F6D6174696320202020C4
:101B9A00002020204C6F636B696E67205379737441
:101BAA00656D202020002020202020202020204297
:101BBA00793A2020202020202020006973686100C3
:101BCA0020456E74657220556E6C6F636B20436F8F
:101BDA0064653A20002020202057726F6E672043E8
:101BEA006F64652120202020200020202020202032
:101BFA0057656C636F6D65212020202020002044EA
:101C0A006F6F72204F70656E00202020205741525E
:101C1A004E494E472020212121212020200020202A
:101C2A00204163636573732044656E6965640000CF
:00000001FF
